{
  "contractName": "SmartContract",
  "abi": [
    {
      "inputs": [
        {
          "internalType": "string",
          "name": "_appendUri",
          "type": "string"
        },
        {
          "internalType": "string",
          "name": "_placeholderUri",
          "type": "string"
        }
      ],
      "stateMutability": "nonpayable",
      "type": "constructor"
    },
    {
      "anonymous": false,
      "inputs": [
        {
          "indexed": true,
          "internalType": "address",
          "name": "owner",
          "type": "address"
        },
        {
          "indexed": true,
          "internalType": "address",
          "name": "approved",
          "type": "address"
        },
        {
          "indexed": true,
          "internalType": "uint256",
          "name": "tokenId",
          "type": "uint256"
        }
      ],
      "name": "Approval",
      "type": "event"
    },
    {
      "anonymous": false,
      "inputs": [
        {
          "indexed": true,
          "internalType": "address",
          "name": "owner",
          "type": "address"
        },
        {
          "indexed": true,
          "internalType": "address",
          "name": "operator",
          "type": "address"
        },
        {
          "indexed": false,
          "internalType": "bool",
          "name": "approved",
          "type": "bool"
        }
      ],
      "name": "ApprovalForAll",
      "type": "event"
    },
    {
      "anonymous": false,
      "inputs": [
        {
          "indexed": true,
          "internalType": "address",
          "name": "previousOwner",
          "type": "address"
        },
        {
          "indexed": true,
          "internalType": "address",
          "name": "newOwner",
          "type": "address"
        }
      ],
      "name": "OwnershipTransferred",
      "type": "event"
    },
    {
      "anonymous": false,
      "inputs": [
        {
          "indexed": true,
          "internalType": "address",
          "name": "from",
          "type": "address"
        },
        {
          "indexed": true,
          "internalType": "address",
          "name": "to",
          "type": "address"
        },
        {
          "indexed": true,
          "internalType": "uint256",
          "name": "tokenId",
          "type": "uint256"
        }
      ],
      "name": "Transfer",
      "type": "event"
    },
    {
      "inputs": [
        {
          "internalType": "address",
          "name": "to",
          "type": "address"
        },
        {
          "internalType": "uint256",
          "name": "tokenId",
          "type": "uint256"
        }
      ],
      "name": "approve",
      "outputs": [],
      "stateMutability": "nonpayable",
      "type": "function"
    },
    {
      "inputs": [
        {
          "internalType": "address",
          "name": "owner",
          "type": "address"
        }
      ],
      "name": "balanceOf",
      "outputs": [
        {
          "internalType": "uint256",
          "name": "",
          "type": "uint256"
        }
      ],
      "stateMutability": "view",
      "type": "function"
    },
    {
      "inputs": [
        {
          "internalType": "uint256",
          "name": "tokenId",
          "type": "uint256"
        }
      ],
      "name": "getApproved",
      "outputs": [
        {
          "internalType": "address",
          "name": "",
          "type": "address"
        }
      ],
      "stateMutability": "view",
      "type": "function"
    },
    {
      "inputs": [
        {
          "internalType": "address",
          "name": "owner",
          "type": "address"
        },
        {
          "internalType": "address",
          "name": "operator",
          "type": "address"
        }
      ],
      "name": "isApprovedForAll",
      "outputs": [
        {
          "internalType": "bool",
          "name": "",
          "type": "bool"
        }
      ],
      "stateMutability": "view",
      "type": "function"
    },
    {
      "inputs": [],
      "name": "name",
      "outputs": [
        {
          "internalType": "string",
          "name": "",
          "type": "string"
        }
      ],
      "stateMutability": "view",
      "type": "function"
    },
    {
      "inputs": [],
      "name": "owner",
      "outputs": [
        {
          "internalType": "address",
          "name": "",
          "type": "address"
        }
      ],
      "stateMutability": "view",
      "type": "function"
    },
    {
      "inputs": [
        {
          "internalType": "uint256",
          "name": "tokenId",
          "type": "uint256"
        }
      ],
      "name": "ownerOf",
      "outputs": [
        {
          "internalType": "address",
          "name": "",
          "type": "address"
        }
      ],
      "stateMutability": "view",
      "type": "function"
    },
    {
      "inputs": [],
      "name": "renounceOwnership",
      "outputs": [],
      "stateMutability": "nonpayable",
      "type": "function"
    },
    {
      "inputs": [
        {
          "internalType": "address",
          "name": "from",
          "type": "address"
        },
        {
          "internalType": "address",
          "name": "to",
          "type": "address"
        },
        {
          "internalType": "uint256",
          "name": "tokenId",
          "type": "uint256"
        }
      ],
      "name": "safeTransferFrom",
      "outputs": [],
      "stateMutability": "nonpayable",
      "type": "function"
    },
    {
      "inputs": [
        {
          "internalType": "address",
          "name": "from",
          "type": "address"
        },
        {
          "internalType": "address",
          "name": "to",
          "type": "address"
        },
        {
          "internalType": "uint256",
          "name": "tokenId",
          "type": "uint256"
        },
        {
          "internalType": "bytes",
          "name": "_data",
          "type": "bytes"
        }
      ],
      "name": "safeTransferFrom",
      "outputs": [],
      "stateMutability": "nonpayable",
      "type": "function"
    },
    {
      "inputs": [
        {
          "internalType": "address",
          "name": "operator",
          "type": "address"
        },
        {
          "internalType": "bool",
          "name": "approved",
          "type": "bool"
        }
      ],
      "name": "setApprovalForAll",
      "outputs": [],
      "stateMutability": "nonpayable",
      "type": "function"
    },
    {
      "inputs": [
        {
          "internalType": "bytes4",
          "name": "interfaceId",
          "type": "bytes4"
        }
      ],
      "name": "supportsInterface",
      "outputs": [
        {
          "internalType": "bool",
          "name": "",
          "type": "bool"
        }
      ],
      "stateMutability": "view",
      "type": "function"
    },
    {
      "inputs": [],
      "name": "symbol",
      "outputs": [
        {
          "internalType": "string",
          "name": "",
          "type": "string"
        }
      ],
      "stateMutability": "view",
      "type": "function"
    },
    {
      "inputs": [
        {
          "internalType": "address",
          "name": "from",
          "type": "address"
        },
        {
          "internalType": "address",
          "name": "to",
          "type": "address"
        },
        {
          "internalType": "uint256",
          "name": "tokenId",
          "type": "uint256"
        }
      ],
      "name": "transferFrom",
      "outputs": [],
      "stateMutability": "nonpayable",
      "type": "function"
    },
    {
      "inputs": [
        {
          "internalType": "address",
          "name": "newOwner",
          "type": "address"
        }
      ],
      "name": "transferOwnership",
      "outputs": [],
      "stateMutability": "nonpayable",
      "type": "function"
    },
    {
      "inputs": [
        {
          "internalType": "string",
          "name": "_URI",
          "type": "string"
        }
      ],
      "name": "_setPlaceHolderUri",
      "outputs": [],
      "stateMutability": "nonpayable",
      "type": "function"
    },
    {
      "inputs": [
        {
          "internalType": "uint256",
          "name": "tokenId",
          "type": "uint256"
        }
      ],
      "name": "tokenURI",
      "outputs": [
        {
          "internalType": "string",
          "name": "",
          "type": "string"
        }
      ],
      "stateMutability": "view",
      "type": "function"
    },
    {
      "inputs": [
        {
          "internalType": "address",
          "name": "_to",
          "type": "address"
        },
        {
          "internalType": "string[]",
          "name": "uri",
          "type": "string[]"
        }
      ],
      "name": "CreateMultipleCollectibles",
      "outputs": [],
      "stateMutability": "payable",
      "type": "function"
    },
    {
      "inputs": [
        {
          "internalType": "address",
          "name": "_to",
          "type": "address"
        },
        {
          "internalType": "string",
          "name": "uri",
          "type": "string"
        }
      ],
      "name": "CreateCollectible",
      "outputs": [
        {
          "internalType": "uint256",
          "name": "",
          "type": "uint256"
        }
      ],
      "stateMutability": "payable",
      "type": "function"
    },
    {
      "inputs": [],
      "name": "GetAllExistingTokens",
      "outputs": [
        {
          "components": [
            {
              "internalType": "uint256",
              "name": "id",
              "type": "uint256"
            },
            {
              "internalType": "string",
              "name": "uri",
              "type": "string"
            }
          ],
          "internalType": "struct SmartContract.NFToken[]",
          "name": "",
          "type": "tuple[]"
        }
      ],
      "stateMutability": "view",
      "type": "function"
    },
    {
      "inputs": [
        {
          "internalType": "address",
          "name": "_address",
          "type": "address"
        }
      ],
      "name": "WithdrawAll",
      "outputs": [],
      "stateMutability": "nonpayable",
      "type": "function"
    },
    {
      "inputs": [
        {
          "internalType": "address",
          "name": "_address",
          "type": "address"
        },
        {
          "internalType": "uint256",
          "name": "_amount",
          "type": "uint256"
        }
      ],
      "name": "Withdraw",
      "outputs": [],
      "stateMutability": "nonpayable",
      "type": "function"
    },
    {
      "inputs": [],
      "name": "BalanceOf",
      "outputs": [
        {
          "internalType": "uint256",
          "name": "",
          "type": "uint256"
        }
      ],
      "stateMutability": "view",
      "type": "function"
    },
    {
      "inputs": [],
      "name": "Reveal",
      "outputs": [],
      "stateMutability": "nonpayable",
      "type": "function"
    },
    {
      "inputs": [
        {
          "internalType": "uint256",
          "name": "price",
          "type": "uint256"
        }
      ],
      "name": "SetPrice",
      "outputs": [],
      "stateMutability": "nonpayable",
      "type": "function"
    },
    {
      "inputs": [],
      "name": "GetPrice",
      "outputs": [
        {
          "internalType": "uint256",
          "name": "",
          "type": "uint256"
        }
      ],
      "stateMutability": "view",
      "type": "function"
    }
  ],
  "bytecode": "0x60806040523480156200001157600080fd5b506040516200234a3803806200234a8339810160408190526200003491620002b2565b60405180604001604052806008815260200167486973616b61746160c01b81525060405180604001604052806008815260200167484953414b41544160c01b815250620000906200008a6200010d60201b60201c565b62000111565b8151620000a590600190602085019062000161565b508051620000bb90600290602084019062000161565b50506127106008555066d529ae9e860000600955600a805460ff191690558051620000ee90600b90602084019062000161565b5081516200010490600c90602085019062000161565b5050506200036c565b3390565b600080546001600160a01b038381166001600160a01b0319831681178455604051919092169283917f8be0079c531659141344cd1fd0a4f28419497f9722a3daafe3b4186f6b6457e09190a35050565b8280546200016f9062000319565b90600052602060002090601f016020900481019282620001935760008555620001de565b82601f10620001ae57805160ff1916838001178555620001de565b82800160010185558215620001de579182015b82811115620001de578251825591602001919060010190620001c1565b50620001ec929150620001f0565b5090565b5b80821115620001ec5760008155600101620001f1565b600082601f83011262000218578081fd5b81516001600160401b038082111562000235576200023562000356565b6040516020601f8401601f19168201810183811183821017156200025d576200025d62000356565b604052838252858401810187101562000274578485fd5b8492505b8383101562000297578583018101518284018201529182019162000278565b83831115620002a857848185840101525b5095945050505050565b60008060408385031215620002c5578182fd5b82516001600160401b0380821115620002dc578384fd5b620002ea8683870162000207565b9350602085015191508082111562000300578283fd5b506200030f8582860162000207565b9150509250929050565b6002810460018216806200032e57607f821691505b602082108114156200035057634e487b7160e01b600052602260045260246000fd5b50919050565b634e487b7160e01b600052604160045260246000fd5b611fce806200037c6000396000f3fe6080604052600436106101815760003560e01c806370a08231116100d15780639c8f38b91161008a578063b88d4fde11610064578063b88d4fde14610420578063c87b56dd14610440578063e985e9c514610460578063f2fde38b1461048057610181565b80639c8f38b9146103be578063a22cb465146103de578063a5058b08146103fe57610181565b806370a082311461032a578063715018a61461034a578063884edad91461035f5780638da5cb5b1461037f57806395d89b41146103945780639a3174a0146103a957610181565b80632b3ede1c1161013e5780634f5539c0116101185780634f5539c0146102c05780636352211e146102e057806366b9f0d2146103005780636d90164e1461031557610181565b80632b3ede1c1461026057806342842e0e14610280578063475cf402146102a057610181565b806301ffc9a7146101865780630637fb04146101bc57806306fdde03146101d1578063081812fc146101f3578063095ea7b31461022057806323b872dd14610240575b600080fd5b34801561019257600080fd5b506101a66101a1366004611750565b6104a0565b6040516101b39190611986565b60405180910390f35b6101cf6101ca3660046115f1565b6104e8565b005b3480156101dd57600080fd5b506101e66105b6565b6040516101b39190611991565b3480156101ff57600080fd5b5061021361020e3660046117bb565b610648565b6040516101b391906118c4565b34801561022c57600080fd5b506101cf61023b366004611727565b61068b565b34801561024c57600080fd5b506101cf61025b36600461153d565b610723565b34801561026c57600080fd5b506101cf61027b3660046114f1565b61075b565b34801561028c57600080fd5b506101cf61029b36600461153d565b6107b3565b6102b36102ae3660046116db565b6107ce565b6040516101b39190611e47565b3480156102cc57600080fd5b506101cf6102db3660046117bb565b610825565b3480156102ec57600080fd5b506102136102fb3660046117bb565b610869565b34801561030c57600080fd5b506101cf61089e565b34801561032157600080fd5b506102b36108ec565b34801561033657600080fd5b506102b36103453660046114f1565b6108f2565b34801561035657600080fd5b506101cf610936565b34801561036b57600080fd5b506101cf61037a366004611727565b610981565b34801561038b57600080fd5b50610213610a3c565b3480156103a057600080fd5b506101e6610a4b565b3480156103b557600080fd5b506102b3610a5a565b3480156103ca57600080fd5b506101cf6103d9366004611788565b610a5e565b3480156103ea57600080fd5b506101cf6103f93660046116a1565b610ab0565b34801561040a57600080fd5b50610413610b7e565b6040516101b39190611915565b34801561042c57600080fd5b506101cf61043b366004611578565b610c8c565b34801561044c57600080fd5b506101e661045b3660046117bb565b610ccb565b34801561046c57600080fd5b506101a661047b36600461150b565b610e08565b34801561048c57600080fd5b506101cf61049b3660046114f1565b610e36565b60006001600160e01b031982166380ac58cd60e01b14806104d157506001600160e01b03198216635b5e139f60e01b145b806104e057506104e082610ea7565b90505b919050565b600081516104f66007610ec0565b6105009190611e86565b905060008251346105119190611e9e565b9050600854821061053d5760405162461bcd60e51b815260040161053490611a73565b60405180910390fd5b60095481101561055f5760405162461bcd60e51b815260040161053490611d60565b60005b83518110156105af5761059c8585838151811061058f57634e487b7160e01b600052603260045260246000fd5b60200260200101516107ce565b50806105a781611f3b565b915050610562565b5050505050565b6060600180546105c590611f00565b80601f01602080910402602001604051908101604052809291908181526020018280546105f190611f00565b801561063e5780601f106106135761010080835404028352916020019161063e565b820191906000526020600020905b81548152906001019060200180831161062157829003601f168201915b5050505050905090565b600061065382610ec4565b61066f5760405162461bcd60e51b815260040161053490611c96565b506000908152600560205260409020546001600160a01b031690565b600061069682610869565b9050806001600160a01b0316836001600160a01b031614156106ca5760405162461bcd60e51b815260040161053490611d8b565b806001600160a01b03166106dc610ee1565b6001600160a01b031614806106f857506106f88161047b610ee1565b6107145760405162461bcd60e51b815260040161053490611b71565b61071e8383610ee5565b505050565b61073461072e610ee1565b82610f53565b6107505760405162461bcd60e51b815260040161053490611df6565b61071e838383610fd8565b610763610ee1565b6001600160a01b0316610774610a3c565b6001600160a01b03161461079a5760405162461bcd60e51b815260040161053490611ce2565b47806107a557600080fd5b6107af8247610981565b5050565b61071e83838360405180602001604052806000815250610c8c565b60006107da6007611105565b60006107e66007610ec0565b90506107f2848261110e565b61081e81600c8560405160200161080a92919061181b565b6040516020818303038152906040526111ed565b9392505050565b61082d610ee1565b6001600160a01b031661083e610a3c565b6001600160a01b0316146108645760405162461bcd60e51b815260040161053490611ce2565b600955565b6000818152600360205260408120546001600160a01b0316806104e05760405162461bcd60e51b815260040161053490611c18565b6108a6610ee1565b6001600160a01b03166108b7610a3c565b6001600160a01b0316146108dd5760405162461bcd60e51b815260040161053490611ce2565b600a805460ff19166001179055565b60095490565b60006001600160a01b03821661091a5760405162461bcd60e51b815260040161053490611bce565b506001600160a01b031660009081526004602052604090205490565b61093e610ee1565b6001600160a01b031661094f610a3c565b6001600160a01b0316146109755760405162461bcd60e51b815260040161053490611ce2565b61097f600061120c565b565b610989610ee1565b6001600160a01b031661099a610a3c565b6001600160a01b0316146109c05760405162461bcd60e51b815260040161053490611ce2565b6000826001600160a01b0316826040516109d9906118c1565b60006040518083038185875af1925050503d8060008114610a16576040519150601f19603f3d011682016040523d82523d6000602084013e610a1b565b606091505b505090508061071e5760405162461bcd60e51b815260040161053490611dcc565b6000546001600160a01b031690565b6060600280546105c590611f00565b4790565b610a66610ee1565b6001600160a01b0316610a77610a3c565b6001600160a01b031614610a9d5760405162461bcd60e51b815260040161053490611ce2565b80516107af90600b9060208401906113b0565b610ab8610ee1565b6001600160a01b0316826001600160a01b03161415610ae95760405162461bcd60e51b815260040161053490611aee565b8060066000610af6610ee1565b6001600160a01b03908116825260208083019390935260409182016000908120918716808252919093529120805460ff191692151592909217909155610b3a610ee1565b6001600160a01b03167f17307eab39ab6107e8899845ad3d59bd9653f200f220920489ca2b5937696c3183604051610b729190611986565b60405180910390a35050565b60606000610b8c6007610ec0565b67ffffffffffffffff811115610bb257634e487b7160e01b600052604160045260246000fd5b604051908082528060200260200182016040528015610beb57816020015b610bd8611434565b815260200190600190039081610bd05790505b50905060005b610bfb6007610ec0565b811015610c8657610c15610c10826001611e86565b610ec4565b15610c74576040518060400160405280826001610c329190611e86565b8152602001610c4561045b846001611e86565b815250828281518110610c6857634e487b7160e01b600052603260045260246000fd5b60200260200101819052505b80610c7e81611f3b565b915050610bf1565b50905090565b610c9d610c97610ee1565b83610f53565b610cb95760405162461bcd60e51b815260040161053490611df6565b610cc58484848461125c565b50505050565b600a5460609060ff16610d6a57600b8054610ce590611f00565b80601f0160208091040260200160405190810160405280929190818152602001828054610d1190611f00565b8015610d5e5780601f10610d3357610100808354040283529160200191610d5e565b820191906000526020600020905b815481529060010190602001808311610d4157829003601f168201915b505050505090506104e3565b6000828152600d602052604090208054610d8390611f00565b80601f0160208091040260200160405190810160405280929190818152602001828054610daf90611f00565b8015610dfc5780601f10610dd157610100808354040283529160200191610dfc565b820191906000526020600020905b815481529060010190602001808311610ddf57829003601f168201915b50505050509050919050565b6001600160a01b03918216600090815260066020908152604080832093909416825291909152205460ff1690565b610e3e610ee1565b6001600160a01b0316610e4f610a3c565b6001600160a01b031614610e755760405162461bcd60e51b815260040161053490611ce2565b6001600160a01b038116610e9b5760405162461bcd60e51b8152600401610534906119f6565b610ea48161120c565b50565b6001600160e01b031981166301ffc9a760e01b14919050565b5490565b6000908152600360205260409020546001600160a01b0316151590565b3390565b600081815260056020526040902080546001600160a01b0319166001600160a01b0384169081179091558190610f1a82610869565b6001600160a01b03167f8c5be1e5ebec7d5bd14f71427d1e84f3dd0314c0f7b2291e5b200ac8c7c3b92560405160405180910390a45050565b6000610f5e82610ec4565b610f7a5760405162461bcd60e51b815260040161053490611b25565b6000610f8583610869565b9050806001600160a01b0316846001600160a01b03161480610fc05750836001600160a01b0316610fb584610648565b6001600160a01b0316145b80610fd05750610fd08185610e08565b949350505050565b826001600160a01b0316610feb82610869565b6001600160a01b0316146110115760405162461bcd60e51b815260040161053490611d17565b6001600160a01b0382166110375760405162461bcd60e51b815260040161053490611aaa565b61104283838361071e565b61104d600082610ee5565b6001600160a01b0383166000908152600460205260408120805460019290611076908490611ebd565b90915550506001600160a01b03821660009081526004602052604081208054600192906110a4908490611e86565b909155505060008181526003602052604080822080546001600160a01b0319166001600160a01b0386811691821790925591518493918716917fddf252ad1be2c89b69c2b068fc378daa952ba7f163c4a11628f55a4df523b3ef91a4505050565b80546001019055565b6001600160a01b0382166111345760405162461bcd60e51b815260040161053490611c61565b61113d81610ec4565b1561115a5760405162461bcd60e51b815260040161053490611a3c565b6111666000838361071e565b6001600160a01b038216600090815260046020526040812080546001929061118f908490611e86565b909155505060008181526003602052604080822080546001600160a01b0319166001600160a01b03861690811790915590518392907fddf252ad1be2c89b69c2b068fc378daa952ba7f163c4a11628f55a4df523b3ef908290a45050565b6000828152600d60209081526040909120825161071e928401906113b0565b600080546001600160a01b038381166001600160a01b0319831681178455604051919092169283917f8be0079c531659141344cd1fd0a4f28419497f9722a3daafe3b4186f6b6457e09190a35050565b611267848484610fd8565b6112738484848461128f565b610cc55760405162461bcd60e51b8152600401610534906119a4565b60006112a3846001600160a01b03166113aa565b1561139f57836001600160a01b031663150b7a026112bf610ee1565b8786866040518563ffffffff1660e01b81526004016112e194939291906118d8565b602060405180830381600087803b1580156112fb57600080fd5b505af192505050801561132b575060408051601f3d908101601f191682019092526113289181019061176c565b60015b611385573d808015611359576040519150601f19603f3d011682016040523d82523d6000602084013e61135e565b606091505b50805161137d5760405162461bcd60e51b8152600401610534906119a4565b805181602001fd5b6001600160e01b031916630a85bd0160e11b149050610fd0565b506001949350505050565b3b151590565b8280546113bc90611f00565b90600052602060002090601f0160209004810192826113de5760008555611424565b82601f106113f757805160ff1916838001178555611424565b82800160010185558215611424579182015b82811115611424578251825591602001919060010190611409565b5061143092915061144e565b5090565b604051806040016040528060008152602001606081525090565b5b80821115611430576000815560010161144f565b600067ffffffffffffffff83111561147d5761147d611f6c565b611490601f8401601f1916602001611e50565b90508281528383830111156114a457600080fd5b828260208301376000602084830101529392505050565b80356001600160a01b03811681146104e357600080fd5b600082601f8301126114e2578081fd5b61081e83833560208501611463565b600060208284031215611502578081fd5b61081e826114bb565b6000806040838503121561151d578081fd5b611526836114bb565b9150611534602084016114bb565b90509250929050565b600080600060608486031215611551578081fd5b61155a846114bb565b9250611568602085016114bb565b9150604084013590509250925092565b6000806000806080858703121561158d578081fd5b611596856114bb565b93506115a4602086016114bb565b925060408501359150606085013567ffffffffffffffff8111156115c6578182fd5b8501601f810187136115d6578182fd5b6115e587823560208401611463565b91505092959194509250565b60008060408385031215611603578182fd5b61160c836114bb565b915060208084013567ffffffffffffffff80821115611629578384fd5b818601915086601f83011261163c578384fd5b81358181111561164e5761164e611f6c565b61165b8485830201611e50565b8181528481019250838501865b838110156116915761167f8b8884358901016114d2565b85529386019390860190600101611668565b5096999098509650505050505050565b600080604083850312156116b3578182fd5b6116bc836114bb565b9150602083013580151581146116d0578182fd5b809150509250929050565b600080604083850312156116ed578182fd5b6116f6836114bb565b9150602083013567ffffffffffffffff811115611711578182fd5b61171d858286016114d2565b9150509250929050565b60008060408385031215611739578182fd5b611742836114bb565b946020939093013593505050565b600060208284031215611761578081fd5b813561081e81611f82565b60006020828403121561177d578081fd5b815161081e81611f82565b600060208284031215611799578081fd5b813567ffffffffffffffff8111156117af578182fd5b610fd0848285016114d2565b6000602082840312156117cc578081fd5b5035919050565b600081518084526117eb816020860160208601611ed4565b601f01601f19169290920160200192915050565b60008151611811818560208601611ed4565b9290920192915050565b825460009081906002810460018083168061183757607f831692505b602080841082141561185757634e487b7160e01b87526022600452602487fd5b81801561186b576001811461187c576118a8565b60ff198616895284890196506118a8565b6118858b611e7a565b885b868110156118a05781548b820152908501908301611887565b505084890196505b5050505050506118b881856117ff565b95945050505050565b90565b6001600160a01b0391909116815260200190565b6001600160a01b038581168252841660208201526040810183905260806060820181905260009061190b908301846117d3565b9695505050505050565b60208082528251828201819052600091906040908185019080840286018301878501865b8381101561197857888303603f19018552815180518452870151878401879052611965878501826117d3565b9588019593505090860190600101611939565b509098975050505050505050565b901515815260200190565b60006020825261081e60208301846117d3565b60208082526032908201527f4552433732313a207472616e7366657220746f206e6f6e20455243373231526560408201527131b2b4bb32b91034b6b83632b6b2b73a32b960711b606082015260800190565b60208082526026908201527f4f776e61626c653a206e6577206f776e657220697320746865207a65726f206160408201526564647265737360d01b606082015260800190565b6020808252601c908201527f4552433732313a20746f6b656e20616c7265616479206d696e74656400000000604082015260600190565b60208082526019908201527f4e6f206d6f7265204e465473206c65667420746f206d696e7400000000000000604082015260600190565b60208082526024908201527f4552433732313a207472616e7366657220746f20746865207a65726f206164646040820152637265737360e01b606082015260800190565b60208082526019908201527f4552433732313a20617070726f766520746f2063616c6c657200000000000000604082015260600190565b6020808252602c908201527f4552433732313a206f70657261746f7220717565727920666f72206e6f6e657860408201526b34b9ba32b73a103a37b5b2b760a11b606082015260800190565b60208082526038908201527f4552433732313a20617070726f76652063616c6c6572206973206e6f74206f7760408201527f6e6572206e6f7220617070726f76656420666f7220616c6c0000000000000000606082015260800190565b6020808252602a908201527f4552433732313a2062616c616e636520717565727920666f7220746865207a65604082015269726f206164647265737360b01b606082015260800190565b60208082526029908201527f4552433732313a206f776e657220717565727920666f72206e6f6e657869737460408201526832b73a103a37b5b2b760b91b606082015260800190565b6020808252818101527f4552433732313a206d696e7420746f20746865207a65726f2061646472657373604082015260600190565b6020808252602c908201527f4552433732313a20617070726f76656420717565727920666f72206e6f6e657860408201526b34b9ba32b73a103a37b5b2b760a11b606082015260800190565b6020808252818101527f4f776e61626c653a2063616c6c6572206973206e6f7420746865206f776e6572604082015260600190565b60208082526029908201527f4552433732313a207472616e73666572206f6620746f6b656e2074686174206960408201526839903737ba1037bbb760b91b606082015260800190565b60208082526011908201527056616c75652062656c6f7720707269636560781b604082015260600190565b60208082526021908201527f4552433732313a20617070726f76616c20746f2063757272656e74206f776e656040820152603960f91b606082015260800190565b60208082526010908201526f2a3930b739b332b9103330b4b632b21760811b604082015260600190565b60208082526031908201527f4552433732313a207472616e736665722063616c6c6572206973206e6f74206f6040820152701ddb995c881b9bdc88185c1c1c9bdd9959607a1b606082015260800190565b90815260200190565b60405181810167ffffffffffffffff81118282101715611e7257611e72611f6c565b604052919050565b60009081526020902090565b60008219821115611e9957611e99611f56565b500190565b6000816000190483118215151615611eb857611eb8611f56565b500290565b600082821015611ecf57611ecf611f56565b500390565b60005b83811015611eef578181015183820152602001611ed7565b83811115610cc55750506000910152565b600281046001821680611f1457607f821691505b60208210811415611f3557634e487b7160e01b600052602260045260246000fd5b50919050565b6000600019821415611f4f57611f4f611f56565b5060010190565b634e487b7160e01b600052601160045260246000fd5b634e487b7160e01b600052604160045260246000fd5b6001600160e01b031981168114610ea457600080fdfea264697066735822122099b1af650987c34333d1c38f31fc6a4442cfeca569f84712b3b0a4a6adbe647164736f6c63430008000033",
  "immutableReferences": {},
  "source": "//SPDX-License-Identifier: MIT\r\n\r\npragma solidity ^0.8.0;\r\n\r\nimport \"@openzeppelin/contracts/token/ERC721/ERC721.sol\";\r\nimport \"@openzeppelin/contracts/access/Ownable.sol\";\r\nimport \"@openzeppelin/contracts/utils/Counters.sol\";\r\n\r\ncontract SmartContract is Ownable,ERC721 {\r\n    using Counters for Counters.Counter;\r\n\r\n    Counters.Counter private _tokenIdTracker;\r\n\r\n    uint256 private MAX_ITEMS;\r\n    uint256 private PRICE;\r\n    bool private revealed;\r\n    string private placeHolderUri;\r\n    string private appendUri;\r\n    mapping(uint256=>string) _tokenURIs;\r\n    \r\n    struct NFToken\r\n    {\r\n        uint256 id;\r\n        string uri;\r\n    }\r\n\r\n    constructor(string memory _appendUri, string memory _placeholderUri) ERC721(\"Hisakata\", \"HISAKATA\") {\r\n        MAX_ITEMS = 10000;\r\n        PRICE = 0.06 ether;\r\n        revealed = false;\r\n        placeHolderUri = _placeholderUri;\r\n        appendUri=_appendUri;\r\n    }\r\n\r\n    function _setTokenURI(uint256 tokenId, string memory _tokenURI) internal{\r\n        _tokenURIs[tokenId] = _tokenURI;\r\n    }\r\n\r\n    function _setPlaceHolderUri(string memory _URI) public onlyOwner{\r\n        placeHolderUri = _URI;\r\n    }\r\n\r\n    function tokenURI(uint256 tokenId) public view virtual override returns(string memory)\r\n    {\r\n        if(revealed == false){\r\n            return placeHolderUri;\r\n        }\r\n        return _tokenURIs[tokenId];\r\n    }\r\n    function CreateMultipleCollectibles(address _to, string[] memory uri)public payable{\r\n        uint256 total = _tokenIdTracker.current() + uri.length;\r\n        uint256 totalCost=msg.value*uri.length;\r\n        require(total < MAX_ITEMS, \"No more NFTs left to mint\");\r\n        require(totalCost >= PRICE, \"Value below price\");\r\n        for(uint256 i = 0; i < uri.length; i++){\r\n            CreateCollectible(_to, uri[i]);\r\n        }\r\n    }\r\n    function CreateCollectible(address _to, string memory uri) public payable returns (uint256) {\r\n        _tokenIdTracker.increment();\r\n        uint id = _tokenIdTracker.current();\r\n        _mint(_to, id);\r\n        _setTokenURI(id, string(abi.encodePacked(appendUri, uri)));\r\n        return id;\r\n    }\r\n    \r\n    function GetAllExistingTokens() public view returns(NFToken[] memory){\r\n        NFToken[] memory result=new NFToken[](_tokenIdTracker.current());\r\n        for(uint256 i=0;i<_tokenIdTracker.current();i++){\r\n            if(_exists(i+1)){\r\n                result[i]=NFToken(i+1, tokenURI(i+1));\r\n            }\r\n        }\r\n        return result;\r\n    }\r\n\r\n    function WithdrawAll(address _address) public onlyOwner {\r\n        uint256 balance = address(this).balance;\r\n        require(balance > 0);\r\n        Withdraw(_address, address(this).balance);\r\n    }\r\n\r\n    function Withdraw(address _address, uint256 _amount) public onlyOwner {\r\n        (bool success,) = _address.call{value : _amount}(\"\");\r\n        require(success, \"Transfer failed.\");\r\n    }\r\n    \r\n    function BalanceOf() external view returns (uint)\r\n    {\r\n        return address(this).balance;\r\n    }\r\n\r\n    function Reveal() public onlyOwner{\r\n        revealed = true;\r\n    }\r\n\r\n    function SetPrice(uint256 price) public onlyOwner{\r\n        PRICE = price;\r\n    }\r\n\r\n    function GetPrice() public view returns(uint256){\r\n        return PRICE;\r\n    }\r\n}",
  "sourcePath": "C:\\Users\\Predator\\Desktop\\interviewApp\\production_dapp\\contracts\\SmartContract.sol",
  "compiler": {
    "name": "solc",
    "version": "0.8.0+commit.c7dfd78e.Emscripten.clang"
  },
  "schemaVersion": "3.4.3",
  "updatedAt": "2021-10-21T15:09:56.126Z",
  "devdoc": {
    "kind": "dev",
    "methods": {
      "approve(address,uint256)": {
        "details": "See {IERC721-approve}."
      },
      "balanceOf(address)": {
        "details": "See {IERC721-balanceOf}."
      },
      "getApproved(uint256)": {
        "details": "See {IERC721-getApproved}."
      },
      "isApprovedForAll(address,address)": {
        "details": "See {IERC721-isApprovedForAll}."
      },
      "name()": {
        "details": "See {IERC721Metadata-name}."
      },
      "owner()": {
        "details": "Returns the address of the current owner."
      },
      "ownerOf(uint256)": {
        "details": "See {IERC721-ownerOf}."
      },
      "renounceOwnership()": {
        "details": "Leaves the contract without owner. It will not be possible to call `onlyOwner` functions anymore. Can only be called by the current owner. NOTE: Renouncing ownership will leave the contract without an owner, thereby removing any functionality that is only available to the owner."
      },
      "safeTransferFrom(address,address,uint256)": {
        "details": "See {IERC721-safeTransferFrom}."
      },
      "safeTransferFrom(address,address,uint256,bytes)": {
        "details": "See {IERC721-safeTransferFrom}."
      },
      "setApprovalForAll(address,bool)": {
        "details": "See {IERC721-setApprovalForAll}."
      },
      "supportsInterface(bytes4)": {
        "details": "See {IERC165-supportsInterface}."
      },
      "symbol()": {
        "details": "See {IERC721Metadata-symbol}."
      },
      "tokenURI(uint256)": {
        "details": "See {IERC721Metadata-tokenURI}."
      },
      "transferFrom(address,address,uint256)": {
        "details": "See {IERC721-transferFrom}."
      },
      "transferOwnership(address)": {
        "details": "Transfers ownership of the contract to a new account (`newOwner`). Can only be called by the current owner."
      }
    },
    "version": 1
  },
  "userdoc": {
    "kind": "user",
    "methods": {},
    "version": 1
  }
}